:04F00000000000000C
:10F00400314000123C4000020D433E401400B01257
:10F01400A2F00C43B0124AF0B012A0F03C4000023F
:10F02400BC4068650000BC406C6C0200BC406F20B2
:10F034000400BC40776F0600BC40726C0800BC4002
:10F0440064210A00FF3F31801000B240805A200141
:10F054003C4000023D400F02FC40410000001C53B4
:10F064000C9DFA233C400002CC430F00FC402000DE
:10F074001000FC40F0FF1100CC4312000D4C0C4179
:10F08400B01290F04C433150100030410E4C7F4D83
:10F09400CE4F00001E530F93FA233041FF3F0E5C06
:10F0A4000F4C0F9E012030411F53CF4DFFFFF93FFE
:02FFFE0004F00D
:040000030000F00405
:00000001FF
